{
  "_format": "hh-sol-artifact-1",
  "contractName": "MintbayEditionFactory",
  "sourceName": "contracts/MintbayEditionFactory.sol",
  "abi": [
    {
      "inputs": [],
      "stateMutability": "nonpayable",
      "type": "constructor"
    },
    {
      "inputs": [],
      "name": "ContractPaused",
      "type": "error"
    },
    {
      "inputs": [],
      "name": "InsufficientFee",
      "type": "error"
    },
    {
      "inputs": [],
      "name": "InvalidEdition",
      "type": "error"
    },
    {
      "inputs": [],
      "name": "NoFeesToWithdraw",
      "type": "error"
    },
    {
      "inputs": [],
      "name": "NotOwnerOrCreator",
      "type": "error"
    },
    {
      "inputs": [
        {
          "internalType": "address",
          "name": "owner",
          "type": "address"
        }
      ],
      "name": "OwnableInvalidOwner",
      "type": "error"
    },
    {
      "inputs": [
        {
          "internalType": "address",
          "name": "account",
          "type": "address"
        }
      ],
      "name": "OwnableUnauthorizedAccount",
      "type": "error"
    },
    {
      "inputs": [],
      "name": "TransferFailed",
      "type": "error"
    },
    {
      "anonymous": false,
      "inputs": [
        {
          "indexed": false,
          "internalType": "uint256",
          "name": "newFee",
          "type": "uint256"
        }
      ],
      "name": "CreationFeeUpdated",
      "type": "event"
    },
    {
      "anonymous": false,
      "inputs": [
        {
          "indexed": true,
          "internalType": "address",
          "name": "creator",
          "type": "address"
        },
        {
          "indexed": true,
          "internalType": "address",
          "name": "edition",
          "type": "address"
        }
      ],
      "name": "EditionCreated",
      "type": "event"
    },
    {
      "anonymous": false,
      "inputs": [
        {
          "indexed": true,
          "internalType": "address",
          "name": "edition",
          "type": "address"
        }
      ],
      "name": "EditionRemoved",
      "type": "event"
    },
    {
      "anonymous": false,
      "inputs": [
        {
          "indexed": true,
          "internalType": "address",
          "name": "recipient",
          "type": "address"
        },
        {
          "indexed": false,
          "internalType": "uint256",
          "name": "amount",
          "type": "uint256"
        }
      ],
      "name": "FeesWithdrawn",
      "type": "event"
    },
    {
      "anonymous": false,
      "inputs": [
        {
          "indexed": true,
          "internalType": "address",
          "name": "previousOwner",
          "type": "address"
        },
        {
          "indexed": true,
          "internalType": "address",
          "name": "newOwner",
          "type": "address"
        }
      ],
      "name": "OwnershipTransferred",
      "type": "event"
    },
    {
      "anonymous": false,
      "inputs": [
        {
          "indexed": false,
          "internalType": "bool",
          "name": "paused",
          "type": "bool"
        }
      ],
      "name": "Paused",
      "type": "event"
    },
    {
      "inputs": [
        {
          "internalType": "uint256",
          "name": "",
          "type": "uint256"
        }
      ],
      "name": "allEditions",
      "outputs": [
        {
          "internalType": "address",
          "name": "",
          "type": "address"
        }
      ],
      "stateMutability": "view",
      "type": "function"
    },
    {
      "inputs": [
        {
          "internalType": "string",
          "name": "name",
          "type": "string"
        },
        {
          "internalType": "string",
          "name": "symbol",
          "type": "string"
        },
        {
          "internalType": "string",
          "name": "description",
          "type": "string"
        },
        {
          "internalType": "uint256",
          "name": "_editionSize",
          "type": "uint256"
        },
        {
          "internalType": "uint256",
          "name": "_price",
          "type": "uint256"
        },
        {
          "internalType": "uint256",
          "name": "_launchpadFee",
          "type": "uint256"
        },
        {
          "internalType": "address",
          "name": "_launchpadFeeReceiver",
          "type": "address"
        },
        {
          "internalType": "address",
          "name": "_marketplaceFeeReceiver",
          "type": "address"
        }
      ],
      "name": "createEdition",
      "outputs": [
        {
          "internalType": "address",
          "name": "",
          "type": "address"
        }
      ],
      "stateMutability": "payable",
      "type": "function"
    },
    {
      "inputs": [],
      "name": "createdAt",
      "outputs": [
        {
          "internalType": "uint256",
          "name": "",
          "type": "uint256"
        }
      ],
      "stateMutability": "view",
      "type": "function"
    },
    {
      "inputs": [],
      "name": "creationFee",
      "outputs": [
        {
          "internalType": "uint256",
          "name": "",
          "type": "uint256"
        }
      ],
      "stateMutability": "view",
      "type": "function"
    },
    {
      "inputs": [
        {
          "internalType": "uint256",
          "name": "start",
          "type": "uint256"
        },
        {
          "internalType": "uint256",
          "name": "limit",
          "type": "uint256"
        }
      ],
      "name": "getAllEditions",
      "outputs": [
        {
          "internalType": "address[]",
          "name": "",
          "type": "address[]"
        }
      ],
      "stateMutability": "view",
      "type": "function"
    },
    {
      "inputs": [],
      "name": "owner",
      "outputs": [
        {
          "internalType": "address",
          "name": "",
          "type": "address"
        }
      ],
      "stateMutability": "view",
      "type": "function"
    },
    {
      "inputs": [],
      "name": "paused",
      "outputs": [
        {
          "internalType": "bool",
          "name": "",
          "type": "bool"
        }
      ],
      "stateMutability": "view",
      "type": "function"
    },
    {
      "inputs": [
        {
          "internalType": "address",
          "name": "",
          "type": "address"
        }
      ],
      "name": "pendingFees",
      "outputs": [
        {
          "internalType": "uint256",
          "name": "",
          "type": "uint256"
        }
      ],
      "stateMutability": "view",
      "type": "function"
    },
    {
      "inputs": [
        {
          "internalType": "address",
          "name": "edition",
          "type": "address"
        }
      ],
      "name": "removeEdition",
      "outputs": [],
      "stateMutability": "nonpayable",
      "type": "function"
    },
    {
      "inputs": [],
      "name": "renounceOwnership",
      "outputs": [],
      "stateMutability": "nonpayable",
      "type": "function"
    },
    {
      "inputs": [
        {
          "internalType": "uint256",
          "name": "newFee",
          "type": "uint256"
        }
      ],
      "name": "setCreationFee",
      "outputs": [],
      "stateMutability": "nonpayable",
      "type": "function"
    },
    {
      "inputs": [
        {
          "internalType": "bool",
          "name": "_paused",
          "type": "bool"
        }
      ],
      "name": "setPaused",
      "outputs": [],
      "stateMutability": "nonpayable",
      "type": "function"
    },
    {
      "inputs": [
        {
          "internalType": "address",
          "name": "newOwner",
          "type": "address"
        }
      ],
      "name": "transferOwnership",
      "outputs": [],
      "stateMutability": "nonpayable",
      "type": "function"
    },
    {
      "inputs": [],
      "name": "withdrawFees",
      "outputs": [],
      "stateMutability": "nonpayable",
      "type": "function"
    }
  ],
  "bytecode": "0x60a0806040523461008c5733156100765760008054336001600160a01b03198216811783556040519290916001600160a01b0316907f8be0079c531659141344cd1fd0a4f28419497f9722a3daafe3b4186f6b6457e09080a3426080526000600155615d7190816100928239608051816103ca0152f35b631e4fbdf760e01b815260006004820152602490fd5b600080fdfe604060808152600490813610156200001657600080fd5b600091823560e01c806316c38b3c14620006c057806325d2a3f31462000684578063476343ee14620005bb5780635c975abb1462000596578063715018a614620005495780638da5cb5b146200051f578063abac98ac14620004da578063b7d862251462000489578063bb61968f146200045b578063c7be117e14620003ed578063cf09e0d014620003b0578063dce0b4e4146200038b578063e44b0a5a14620001495763f2fde38b14620000ca57600080fd5b34620001455760203660031901126200014557620000e762000729565b90620000f262000b6f565b6001600160a01b039182169283156200012f57505082546001600160a01b03198116831784551660008051602062005d1c8339815191528380a380f35b51631e4fbdf760e01b8152908101849052602490fd5b8280fd5b509190610100908160031936011262000145576001600160401b0391843583811162000387576200017e9036908701620007e9565b906024358481116200038357620001999036908801620007e9565b6044358581116200037f57620001b39036908901620007e9565b6001600160a01b03959060c43587811691908290036200037b5760e43593888516809503620003775760ff8b541662000367576001543410620003585787519661517f80890195861189871017620003455792620002416101209593620002326200026b948c9b9a999762000b9d8d3961014080895288019062000b2d565b90868203602088015262000b2d565b90338b860152606435606086015260843560808601523060a086015284820360c086015262000b2d565b9460a43560e08401528201520152039084f080156200033b578216913462000318575b50600354600160401b81101562000305576020945090620002da83620002bc84600183960160035562000745565b90919060018060a01b038084549260031b9316831b921b1916179055565b51927f359c0f0ab816f31a89be4c4f781d1b0ca75c7e4a4cb160956c3698afb8d8d4f8339180a38152f35b634e487b7160e01b845260418552602484fd5b8354168352600260205280832062000332348254620009f9565b9055386200028e565b81513d85823e3d90fd5b634e487b7160e01b8c5260418d5260248cfd5b875162976f7560e21b81528b90fd5b875163ab35696f60e01b81528b90fd5b8980fd5b8880fd5b8680fd5b8580fd5b8480fd5b505034620003ac5781600319360112620003ac576020906001549051908152f35b5080fd5b505034620003ac5781600319360112620003ac57602090517f00000000000000000000000000000000000000000000000000000000000000008152f35b503462000145578160031936011262000145576200041090602435903562000a1d565b815192839260208080860192818752855180945286019401925b8281106200043a57505050500390f35b83516001600160a01b0316855286955093810193928101926001016200042a565b8334620004865760203660031901126200048657620004836200047d62000729565b62000836565b80f35b80fd5b50346200014557602036600319011262000145577f88a973fd5506071e0cf878b30898776c47d5250a7ee1e6ee0b36df3b03c7c16a916020913590620004ce62000b6f565b8160015551908152a180f35b503462000145576020366003190112620001455735916003548310156200048657506200050960209262000745565b60018060a01b0391549060031b1c169051908152f35b505034620003ac5781600319360112620003ac57905490516001600160a01b039091168152602090f35b833462000486578060031936011262000486576200056662000b6f565b80546001600160a01b03198116825581906001600160a01b031660008051602062005d1c8339815191528280a380f35b50913462000486578060031936011262000486575060ff602092541690519015158152f35b5090346200014557826003193601126200014557620005d962000b6f565b3383526002602052808320549182156200067657338452600260205283828120558380808086335af13d1562000670573d6200061581620007cd565b906200062485519283620007a9565b81528560203d92013e5b15620006625750519081527fc0819c13be868895eb93e40eaceb96de976442fa1d404e5c55f14bb65a8c489a60203392a280f35b90516312171d8360e31b8152fd5b6200062e565b9051630d00db4d60e31b8152fd5b505034620003ac576020366003190112620003ac5760209181906001600160a01b03620006b062000729565b1681526002845220549051908152f35b5034620001455760203660031901126200014557803580151580910362000725577f0e2fb031ee032dc02d8011dc50b816eb450cf856abd8261680dac74f72165bd2926020926200071062000b6f565b60ff1981541660ff841617905551908152a180f35b8380fd5b600435906001600160a01b03821682036200074057565b600080fd5b6003548110156200076157600360005260206000200190600090565b634e487b7160e01b600052603260045260246000fd5b602081019081106001600160401b038211176200079357604052565b634e487b7160e01b600052604160045260246000fd5b601f909101601f19168101906001600160401b038211908210176200079357604052565b6001600160401b0381116200079357601f01601f191660200190565b81601f8201121562000740578035906200080382620007cd565b92620008136040519485620007a9565b828452602083830101116200074057816000926020809301838601378301015290565b6040516302d05d3f60e01b81526004916001600160a01b03908116916020818581865afa908115620009d55760009162000993575b5081163314158062000984575b620009725760005b6003805480831015620009605784846200089a8562000745565b905490851b1c1614620008b257505060010162000880565b916000959193949519928381019081116200094b5790620002bc86620008dc620008ea9462000745565b905490881b1c169162000745565b82549081156200093657500191620009028362000745565b9091825491841b1b19169055557fa107f707f681bb66995f241c5e0d1477225bf2ee9b3e68f00f112e678ba842b2600080a2565b603190634e487b7160e01b6000525260246000fd5b601183634e487b7160e01b6000525260246000fd5b60405163720874cf60e01b8152600490fd5b6040516342f073f360e11b8152600490fd5b50806000541633141562000878565b6020813d602011620009cc575b81620009af60209383620007a9565b81010312620003ac5751908282168203620004865750386200086b565b3d9150620009a0565b6040513d6000823e3d90fd5b6001600160401b038111620007935760051b60200190565b9190820180921162000a0757565b634e487b7160e01b600052601160045260246000fd5b8115801562000b22575b62000b1257600391600354908183101562000af4578162000a498285620009f9565b111562000aeb575081810390811162000a0757905b62000a6982620009e1565b9262000a796040519485620007a9565b82845262000a8783620009e1565b60209290601f1901368685013760005b84811062000aa757505050505090565b62000abd62000ab78284620009f9565b62000745565b9054875191851b1c6001600160a01b031691908110156200076157600191858260051b890101520162000a97565b90509062000a5e565b5050505060405162000b068162000777565b60008152600036813790565b505060405162000b068162000777565b506064821162000a27565b919082519283825260005b84811062000b5a575050826000602080949584010152601f8019910116010190565b60208183018101518483018201520162000b38565b6000546001600160a01b0316330362000b8457565b60405163118cdaa760e01b8152336004820152602490fdfe604061016081523462000697576200517f803803806200001f816200069c565b928339810191610140908183850312620006975782516001600160401b03811162000697578462000052918501620006c2565b60208401516001600160401b03811162000697578562000074918601620006c2565b906200008283860162000734565b916060860151966080870151906200009d60a0890162000734565b60c089015190916001600160401b0382116200069757620000c0918a01620006c2565b9060e0890151926101009a620000d88c8c0162000734565b95620000e9610120809d0162000734565b885190986001600160401b038211620003725760005490600182811c921680156200068c575b60208310146200048a5781601f8493116200062c575b50602090601f8311600114620005b057600092620005a4575b50508160011b916000199060031b1c1916176000555b8051906001600160401b038211620003725760015490600182811c9216801562000599575b60208310146200048a5781601f84931162000535575b50602090601f8311600114620004b757600092620004ab575b50508160011b916000199060031b1c1916176001555b60016008819055605f55608088905260605560a05260c0528051906001600160401b038211620003725760615490600182811c92168015620004a0575b60208310146200048a5781601f84931162000426575b50602090601f8311600114620003ac57600092620003a0575b50508160011b916000199060031b1c1916176061555b60e052865284524283526001600160a01b03168015620003885781518083016001600160401b0381118282101762000372576101f49160209185528381520152607d60a21b1760065551916149d593846200074a853960805184818161127b0152818161143b0152818161146501528181611508015281816122a0015281816123b301528181612ace01528181612be50152818161330601526134dd015260a05184818161210201528181612bbf01528181612ccc0152612d1b015260c05184818161064e015281816110990152818161170b015281816123e101526130e9015260e05184818161217f01528181612a2201528181612a9801528181612c200152612cfa01525183818161051d01528181612b090152612c4601525182818161296c0152612fd6015251816105e50152f35b634e487b7160e01b600052604160045260246000fd5b8151635b6cc80560e11b815260006004820152602490fd5b0151905038806200022a565b606160009081526000805160206200515f8339815191529350601f198516905b8181106200040d5750908460019594939210620003f3575b505050811b0160615562000240565b015160001960f88460031b161c19169055388080620003e4565b92936020600181928786015181550195019301620003cc565b60616000529091506000805160206200515f833981519152601f840160051c810191602085106200047f575b90601f859493920160051c01905b8181106200046f575062000211565b6000815584935060010162000460565b909150819062000452565b634e487b7160e01b600052602260045260246000fd5b91607f1691620001fb565b015190503880620001a8565b6001600090815293506000805160206200513f83398151915291905b601f198416851062000519576001945083601f19811610620004ff575b505050811b01600155620001be565b015160001960f88460031b161c19169055388080620004f0565b81810151835560209485019460019093019290910190620004d3565b60016000529091506000805160206200513f833981519152601f840160051c810191602085106200058e575b90601f859493920160051c01905b8181106200057e57506200018f565b600081558493506001016200056f565b909150819062000561565b91607f169162000179565b0151905038806200013e565b600080805293506000805160206200511f83398151915291905b601f198416851062000610576001945083601f19811610620005f6575b505050811b0160005562000154565b015160001960f88460031b161c19169055388080620005e7565b81810151835560209485019460019093019290910190620005ca565b600080529091506000805160206200511f833981519152601f840160051c81016020851062000684575b90849392915b601f830160051c820181106200067457505062000125565b600081558594506001016200065c565b508062000656565b91607f16916200010f565b600080fd5b6040519190601f01601f191682016001600160401b038111838210176200037257604052565b919080601f84011215620006975782516001600160401b0381116200037257602090620006f8601f8201601f191683016200069c565b92818452828287010111620006975760005b8181106200072057508260009394955001015290565b85810183015184820184015282016200070a565b51906001600160a01b0382168203620006975756fe61010080604052600436101561001457600080fd5b600060e05260e0513560e01c90816301ffc9a71461350c5750806302d05d3f146134c657806306fdde03146134a9578063081812fc14613469578063095ea7b31461337457806313ed1fd3146128e857806316c38b3c146132e657806318160ddd146132ba578063223293f51461318157806323b872dd1461316a5780632a55205a146131435780632c329051146130a35780632d296bf114612efd5780633af32abf146121255780633f7e98e41461299b5780633f8acca41461295557806342842e0e146129265780634681a7c6146129075780634e986a6b146128e8578063572849c4146128c95780635c975abb146128a55780635f6bd74b1461287757806361cf48631461284e5780636352211e1461281e5780636ac81c47146127e857806370a082311461278c5780637284e416146126f557806375794a3c146126d657806375c1631d1461253c5780637aef11641461250e5780637f64978314612375578063806234441461228a5780638bc3bbc01461201d5780638e74c35c1461226d57806395d89b41146121a2578063967cc42f146121665780639b19251a14612125578063a035b1fe146120e9578063a22cb4651461203c578063a2ed365b1461201d578063a725801514611fcd578063a81152f714610501578063ac3c995214611d9f578063b88d4fde14611d02578063ba4e5c4914611cc0578063bed659bc14611bbc578063bf64e1d81461116d578063c128b2311461111a578063c189d33d146110ec578063c2d05a6e146110c8578063c45a015514611082578063c636484e1461104b578063c87b56dd14610701578063cc6e64ac14610608578063cf09e0d0146105cc578063d01f63f51461054c578063d0485c1614610506578063d0ab592814610501578063d6dc1f8d146104d7578063d90f4723146104ba578063dc04515c14610428578063de74e57b146103d9578063e985e9c514610381578063ed9ec88814610345578063f4ed0f46146103265763fc68590b146102fc57600080fd5b346103205760e05136600319011261032057602060ff605e54166040519015158152f35b60e05180fd5b346103205760e051366003190112610320576020606054604051908152f35b34610320576020366003190112610320576001600160a01b036103666135e8565b1660e05152606e6020526020604060e0512054604051908152f35b346103205760403660031901126103205761039a6135e8565b6103a2613603565b9060018060a01b0380911660e051526005602052604060e051209116600052602052602060ff604060002054166040519015158152f35b346103205760203660031901126103205760043560e0515260696020526060604060e0512060ff6001825492015460405192835260018060a01b038116602084015260a01c1615156040820152f35b346103205760e05136600319011261032057604051605d80548083526000918252602080840193927f2619ec68b255542e3da68c054bfe0d7d0f27b7fdbefc8bbccdd23188fc71fe7f92915b8282106104a35761049f8561048b818903826137b5565b6040519182916020835260208301906138a6565b0390f35b835486529485019460019384019390910190610474565b346103205760e05136600319011261032057602060405160fa8152f35b346103205760e051366003190112610320576009546040516001600160a01b039091168152602090f35b6138da565b346103205760e051366003190112610320576040517f00000000000000000000000000000000000000000000000000000000000000006001600160a01b03168152602090f35b346103205760e051366003190112610320576040518060655491828152602080910192606560e05152602060e051209160e051905b8282106105ac5761049f85610598818903826137b5565b604051918291602083526020830190613911565b83546001600160a01b031686529485019460019384019390910190610581565b346103205760e0513660031901126103205760206040517f00000000000000000000000000000000000000000000000000000000000000008152f35b346103205760e0513660031901126103205760405163c45a015560e01b8152602081600481335afa9081156106f45760e051916106c5575b506001600160a01b039081167f00000000000000000000000000000000000000000000000000000000000000009091160361068957610680606254613b7a565b60625560e05180f35b60405163d647364f60e01b815260206004820152600f60248201526e496e76616c696420666163746f727960881b6044820152606490fd5b0390fd5b6106e7915060203d6020116106ed575b6106df81836137b5565b810190613b5b565b81610640565b503d6106d5565b6040513d60e051823e3d90fd5b34610320576020366003190112610320576001600160a01b03610725600435613ec5565b16156110115760405161073781613751565b605c81527f3c7376672077696474683d27373227206865696768743d2737322720786d6c6e60208201527f733d27687474703a2f2f7777772e77332e6f72672f323030302f73766727207360408201527b3430b83296b932b73232b934b7339e93b1b934b9b822b233b2b9939f60211b606082015260e0515b60518110610c6057506107f56026604051836107d68295518092602080860191016135a0565b8101651e17b9bb339f60d11b60208201520360068101845201826137b5565b605e54600890811c6001600160a01b0316610c0e576040516108168161379a565b6006815265112937b7ba1160d11b6020820152905b6108336137d8565b9261085161084260043561459b565b9161084b6146d8565b9061483c565b61085c60605461459b565b9061086b6003605c540461459b565b60e0519094815b60518110610be05750506108859061459b565b9260405196693d913730b6b2911d101160b11b60208901526108b1815180926020602a8c0191016135a0565b870161202360f01b602a8201526108d2825180936020602c850191016135a0565b01711116113232b9b1b934b83a34b7b7111d101160711b602c820152603e60e0519160615491610901836136e6565b92600190818116908115610bb45750600114610b6f575b61049f610b088c610b0060e9828f8f8f8f8f8f7f222c22696d616765223a2022646174613a696d6167652f7376672b786d6c3b62815265185cd94d8d0b60d21b60208201526109718251809360206026850191016135a0565b0170222c2261747472696275746573223a205b60781b60268201527f7b2274726169745f74797065223a202245646974696f6e2053697a65222c20226037820152683b30b63ab2911d101160b91b60578201526109d88251809360206060850191016135a0565b019162089f4b60ea1b928360608201527f7b2274726169745f74797065223a2022436f6c6f7220436f756e74222c20227660638201526730b63ab2911d101160c11b6083820152610a33825180936020608b850191016135a0565b0182608b8201527f7b2274726169745f74797065223a2022476c79706820436f6d706c6578697479608e8201526c111610113b30b63ab2911d101160991b60ae820152610a8a82518093602060bb850191016135a0565b019060bb8201527f7b2274726169745f74797065223a202250616c657474652054797065222c202260be8201526703b30b63ab2911d160c51b60de820152610adc82518093602060e6850191016135a0565b01607d60f81b60e6820152615d7d60f01b60e78201520360c98101845201826137b5565b61084b6146d8565b610b5b603d60405180937f646174613a6170706c69636174696f6e2f6a736f6e3b6261736536342c0000006020830152610b4b81518092602086860191016135a0565b810103601d8101845201826137b5565b6040519182916020835260208301906135c3565b9091929350606160e05152602060e0512060e051905b858210610b9f575050505001603e0184848461049f610918565b82816020925486858901015201910190610b85565b60ff1916603e85810191909152851515909502909301909301935087925086915085905061049f610918565b600160ff82600b0154841c1611610bfa575b600101610872565b91610c06600191613b7a565b929050610bf2565b605d54610c3b57604051610c218161379a565b60068152651121b7b83c9160d11b60208201525b9061082b565b604051610c478161379a565b6007815266112932b6b4bc1160c91b6020820152610c35565b604051610c6c81613751565b60ff82600b01548181168352818160081c166020840152818160101c16604084015260181c16606082015260099081830691828060031b0460081483151715610f6857830490818060031b0460081482151715610f6857600160ff8251161480611001575b610fde575b60ff60208201511680151580610fce575b610cf8575b505050506001016107b0565b92949260018103610d365750610d2b92916001949560ff6060610d25940151169160031b9060031b61448e565b90613e84565b915b90838080610cec565b9190606060ff9101511694602060018060a01b03600a5416936024604051809681936362a68edd60e01b835260048301525afa9283156106f45760e05193610f8a575b5060e051606093905b60088110610e375750505050610e3191610e2c604270139039ba3937b5b29e93b737b73293979f60791b93610dc260019798610dbc613c27565b90614755565b90604051958692683c7061746820643d2760b81b602085015267272066696c6c3d2760c01b602993610dfd815180926020888a0191016135a0565b850193840152603192610e1982518093602087850191016135a0565b01918201520360228101855201836137b5565b613e84565b91610d2d565b8060031b81810460081482151715610f68576038908181810311610f68576001600160401b0384168183031c60ff1615610f805760e0515b60088110610e84575050506001905b01610d82565b60078082810311610f685760018260ff92031b60018060401b0387168486031c1616610eb3575b600101610e6f565b96600160fd1b610f60602b6001938a6803418bb18b41698bd160bd1b610ef6610ee88f610eed8f8e92610ee89160031b613bb9565b61459b565b9460031b613bb9565b6040519684610f0f89965180926020808a0191016135a0565b850193604d60f81b6020860152602194610f3282518093602089850191016135a0565b0193840152602292610f4d82518093602087850191016135a0565b019182015203600b8101845201826137b5565b979050610eab565b634e487b7160e01b60e051526011600452602460e051fd5b5050600190610e7e565b9092506020813d602011610fc6575b81610fa6602093836137b5565b8101031261032057516001600160401b0381168103610320579186610d79565b3d9150610f99565b5060ff6060830151161515610ce7565b93610ffb90610d2560ff6040880151168460031b8660031b61448e565b93610cd6565b5060ff6040820151161515610cd1565b60405163d647364f60e01b81526020600482015260116024820152702737b732bc34b9ba32b73a103a37b5b2b760791b6044820152606490fd5b3461032057602036600319011261032057600435605c54811015610320576110746020916136cb565b90546040519160031b1c8152f35b346103205760e051366003190112610320576040517f00000000000000000000000000000000000000000000000000000000000000006001600160a01b03168152602090f35b346103205760e05136600319011261032057602060ff606654166040519015158152f35b346103205760e05136600319011261032057605e5460405160089190911c6001600160a01b03168152602090f35b346103205761115161115f61049f61113a6111343661364e565b90613d17565b9193906040519586956060875260608701906138a6565b9085820360208701526138a6565b908382036040850152613911565b3461032057610160366003190112610320576004356001600160401b0381116103205761119e903690600401613876565b906024356001600160401b038111610320576111be903690600401613876565b9092906044356001600160401b038111610320576111e0903690600401613876565b946064356001600160401b03811161032057611200903690600401613876565b91906084356001600160401b03811161032057611221903690600401613876565b6080529260a4359586151587036103205760c4356001600160a01b03811690036103205760e4356001600160a01b03811690036103205761010435801515810361032057610144356001600160a01b0381169003610320577f00000000000000000000000000000000000000000000000000000000000000006001600160a01b03163303611baa576001605f5403611b985760518914801590611b8d575b8015611b82575b8015611b77575b611b3a5760036080510615801590611b2b575b611af457610144356001600160a01b031615611ab857600980546001600160a01b0361014435166001600160a01b03199182168117909255600a8054909116909117905560e0515b8a8a605183106119b45750506080516001600160401b0310905061189957608051600160401b1061189957605d54608051605d558060805110611984575b5085605d60e05152602060e051209060e0515b608051811061197057505050611390608051613c9d565b85605c60e05152602060e051209060e0515b608051811061195c5750505060c4356001600160a01b031661175c575b605e80546001600160a81b03191689151560ff161760c43560081b610100600160a81b031617905560e4356001600160a01b03161515806116d6575b61167c575b60ff80196066541691151516176066556101243560675560018060a01b0360c435166115c5575b61145f605f5461143681613b7a565b605f557f000000000000000000000000000000000000000000000000000000000000000061416b565b60e080517f00000000000000000000000000000000000000000000000000000000000000006001600160a01b03169052606e602052516040902080546114a490613b7a565b9055605f549586600019810111610f68577f8eca8e2ea99e1f8ae5cb126e6fe384fdcbae0ea382ca9f4e11e9dee7af22d27b9a61155561157196611563946115839a60405160e0518152600080516020614980833981519152602060018060a01b037f000000000000000000000000000000000000000000000000000000000000000016936000190192a36115476040519e8f9e8f610140908181520191613c79565b8d810360208f015291613c79565b918a830360408c0152613c79565b918783036060890152613c79565b90848203608086015260805190613c79565b90151560a08301526001600160a01b0360c435811660c084015260e435811660e08401526101243561010084015261014435166101208301520390a160e05180f35b6080516116285760c4356001600160a01b03163b156103205760405163331b992b60e21b815260e051816004818360c4356001600160a01b03165af180156106f457611612575b50611427565b61161b9061376c565b60e051610320578a61160c565b60c4356001600160a01b03163b1561032057604051632c32905160e01b815260e051816004818360c4356001600160a01b03165af180156106f45761166d5750611427565b6116769061376c565b8a61160c565b60e0805160e4356001600160a01b0381169091526064602052905160409020805460ff191660011790556116af90613bea565b60e05160e4356001600160a01b0316906000805160206149408339815191529080a2611400565b5060405163c45a015560e01b815260208160048160e4356001600160a01b03165afa9081156106f45760e0519161173d575b507f00000000000000000000000000000000000000000000000000000000000000006001600160a01b039081169116146113fb565b611756915060203d6020116106ed576106df81836137b5565b8c611708565b60405163239d30d760e21b815260e051919a9998979695949392918160048160c4356001600160a01b03165afa80156106f45760e05160a0526118b1575b506117b26117ad60805160a05151613bb9565b613ce5565b8051906001600160401b038211611899576020906117cf83613c9d565b01605c60e05152602060e0512060c05260e0515b8281106118835750505060e0515b60a05151811015611837578061183161180e60019360a051613988565b51611818836136cb565b90919082549060031b91821b91600019901b1916179055565b016117f1565b5090919293949596979860e0515b608051811061185457506113bf565b8061187d6118676001936080518b613bc6565b356118186118788460a05151613bb9565b6136cb565b01611845565b600190602083519301928160c0510155016117e3565b634e487b7160e01b60e051526041600452602460e051fd5b3d8060e051833e6118c281836137b5565b8101602082820312610320578151906001600160401b0382116103205780601f8385010112156103205781830151916118fa83613971565b9361190860405195866137b5565b838552602085019260208560051b8484010101116103205780820160200192915b60208560051b8284010101841061194857505050505060a0528b61179a565b602080809486518152019401939250611929565b6001906020833593019281850155016113a2565b600190602083359301928185015501611379565b605d60e05152602060e051209060805182015b81830181106119a7575050611366565b60e0518155600101611997565b826119c191600193613bc6565b35118015611aa3575b611a6a5780868b8a8f8f8562ff0000926119fb828c611a02956119f360019d60ff9b8c93613bc6565b351699613bc6565b3594613bc6565b3591611a0f868b8d613bc6565b3593606060405191611a2083613751565b87835280841660208401528086166040840152861691015261ff0086600b019563ff00000087549660181b169563ffffffff1916179160081b16179160101b161717905501611328565b60405163d647364f60e01b815260206004820152601060248201526f125b9d985b1a590819db1e5c1a08125160821b6044820152606490fd5b50607e611ab1828589613bc6565b35116119ca565b60405163d647364f60e01b815260206004820152601360248201527216995c9bc819db1e5c1a0818dbdb9d1c9858dd606a1b6044820152606490fd5b60405163d647364f60e01b815260206004820152600e60248201526d496e76616c696420636f6c6f727360901b6044820152606490fd5b506009600360805104116112e0565b60405163d647364f60e01b8152602060048201526014602482015273092dcecc2d8d2c840c2e4e4c2f240d8cadccee8d60631b6044820152606490fd5b5060518314156112cd565b5060518b14156112c6565b5060518214156112bf565b60405163a741a04560e01b8152600490fd5b6040516393687c0b60e01b8152600490fd5b346103205760203660031901126103205760043560ff60685416611cae578060e051526069602052604060e05120600160405191611bf983613720565b8054835201549060ff604060018060a01b03841692836020820152019260a01c16151582523303611c96575115611c6357611c3381613fba565b33907f70a382c18b6e794d86997f6e1f1efca577925cfa85c476a6ff7031f0a3dd6ed060e05160e051a360e05180f35b60405163d647364f60e01b815260206004820152600a602482015269139bdd081b1a5cdd195960b21b6044820152606490fd5b6040516322718ad960e21b8152336004820152602490fd5b60405163ab35696f60e01b8152600490fd5b346103205760203660031901126103205760043560655481101561032057611ce960209161367f565b905460405160039290921b1c6001600160a01b03168152f35b3461032057608036600319011261032057611d1b6135e8565b611d23613603565b6064359190604435906001600160401b038411610320573660238501121561032057836004013592611d54846138f6565b93611d6260405195866137b5565b808552366024828801011161032057806024611d9997016020870137602060e0519186010152611d938383836139bf565b33614372565b60e05180f35b3461032057604036600319011261032057611db86135e8565b60249081356001600160401b03811161032057611dd9903690600401613876565b9160ff8060685416611cae57611ded613f97565b6001600160a01b03828116959091908615611f985760148611611f555760e0515b868110611e605787877f10ba331e3f7141245efc795fa4bf8b7c43b04253fd06ca6143984563b2626379611e52896040519182916020835233956020840191613c79565b0390a3600160085560e05180f35b3384611e76611e70848b8b613bc6565b35613ec5565b1603611f3f57611e92611e8a828989613bc6565b3586336142ea565b15611f155780611ea56001928989613bc6565b3560e0515260696020528382604060e05120015460a01c16611efc575b611ef6611ed0828a8a613bc6565b3560405190611ede8261377f565b60e0518252611eee818a33614103565b883333614372565b01611e0e565b611f10611f0a828a8a613bc6565b35613fba565b611ec2565b611f2185918888613bc6565b35906106c160405192839263177e802f60e01b845260048401613664565b506040516322718ad960e21b8152336004820152fd5b60405163d647364f60e01b815260206004820152601a60248201527922bc31b2b2b2399036b0bc103130ba31b4103a3930b739b332b960311b6044820152606490fd5b60405163d647364f60e01b815260206004820152600c60248201526b5a65726f206164647265737360a01b6044820152606490fd5b3461032057602036600319011261032057600435605181101561032057608090600b015460ff604051918181168352818160081c166020840152818160101c16604084015260181c166060820152f35b346103205760e051366003190112610320576020606354604051908152f35b34610320576040366003190112610320576120556135e8565b60243590811515809203610320576001600160a01b03169081156120d0573360e051526005602052604060e051208260e05152602052604060e0512060ff1981541660ff83161790556040519081527f17307eab39ab6107e8899845ad3d59bd9653f200f220920489ca2b5937696c3160203392a360e05180f35b604051630b61174360e31b815260048101839052602490fd5b346103205760e0513660031901126103205760206040517f00000000000000000000000000000000000000000000000000000000000000008152f35b34610320576020366003190112610320576001600160a01b036121466135e8565b1660e051526064602052602060ff604060e0512054166040519015158152f35b346103205760e0513660031901126103205760206040517f00000000000000000000000000000000000000000000000000000000000000008152f35b346103205760e0513660031901126103205760405160e051600182600154926121ca846136e6565b928383526020948560018216918260001461224d57505060011461220a575b506121f6925003836137b5565b61049f6040519282849384528301906135c3565b849150600160e051528160e051209060e051915b8583106122355750506121f69350820101856121e9565b8054838901850152879450869390920191810161221e565b60ff1916858201526121f695151560051b85010192508791506121e99050565b346103205760e0513660031901126103205761049f61048b613c27565b34610320576020366003190112610320576004357f00000000000000000000000000000000000000000000000000000000000000006001600160a01b03163303611baa57605f546000198101908111610f6857811061236357606054811015612322576020817f957934b91e16581d8381419681cd603e912effcd764ed405acad4886627ae48892606055604051908152a160e05180f35b60405163d647364f60e01b81526020600482015260186024820152772732bb9039b4bd329036bab9ba1031329039b6b0b63632b960411b6044820152606490fd5b60405163e7c8d79f60e01b8152600490fd5b3461032057602080600319360112610320576004356001600160401b038111610320576123a6903690600401613876565b91906001600160a01b03907f000000000000000000000000000000000000000000000000000000000000000082163303611baa5760e05192827f000000000000000000000000000000000000000000000000000000000000000016935b8581106124105760e05180f35b60048285612427612422858b89613bc6565b613bd6565b166040519283809263c45a015560e01b82525afa9081156106f4578691869160e051916124f1575b5016036106895780846124686124226001948a88613bc6565b1660e05152606480845260ff604060e05120541615612489575b5001612403565b85612498612422848b89613bc6565b1660e051528352604060e051208260ff198254161790556124c56124c0612422838a88613bc6565b613bea565b846124d4612422838a88613bc6565b1660008051602061494083398151915260e05160e051a287612482565b6125089150853d87116106ed576106df81836137b5565b8961244f565b346103205760203660031901126103205760043560e05152606b6020526020604060e0512054604051908152f35b346103205761254a3661364e565b9060ff60685416611cae5761255e81613ec5565b6001600160a01b03903390821603611c965782156126a3578160e051526020906069825260ff6001604060e05120015460a01c1661266c576040516125a281613720565b84815282810191338352600160408301928184528660e0515260698652604060e05120905181550192511682549160ff60a01b9051151560a01b169160018060a81b03191617179055606d54606a825280604060e051205560e05152606b815281604060e0512055606d5490600160401b8210156118995761264f836118188460017f7765a1c07bdce3390c521eaeb86030b188b77cbaba2d76bd7c9c32d906bfbcba9601606d556136b0565b61265a606c54613b7a565b606c556040519384523393a360e05180f35b60405163d647364f60e01b815260048101839052600e60248201526d105b1c9958591e481b1a5cdd195960921b6044820152606490fd5b60405163d647364f60e01b815260206004820152600a6024820152695a65726f20707269636560b01b6044820152606490fd5b346103205760e051366003190112610320576020605f54604051908152f35b346103205760e0513660031901126103205760405160e051606154908261271b836136e6565b918282526020936001908560018216918260001461224d57505060011461274957506121f6925003836137b5565b849150606160e051528160e051209060e051915b8583106127745750506121f69350820101856121e9565b8054838901850152879450869390920191810161275d565b34610320576020366003190112610320576001600160a01b036127ad6135e8565b1680156127ce5760e0515260036020526020604060e0512054604051908152f35b6040516322718ad960e21b815260e0516004820152602490fd5b3461032057602036600319011261032057600435605d5481101561032057602090605d60e051528160e051200154604051908152f35b3461032057602036600319011261032057602061283c600435613ec5565b6040516001600160a01b039091168152f35b3461032057602036600319011261032057600435606d54811015610320576110746020916136b0565b346103205760203660031901126103205760043560e05152606a6020526020604060e0512054604051908152f35b346103205760e05136600319011261032057602060ff606854166040519015158152f35b346103205760e051366003190112610320576020606754604051908152f35b346103205760e051366003190112610320576020606254604051908152f35b346103205760e051366003190112610320576020606c54604051908152f35b3461032057611d9961293736613619565b90604051926129458461377f565b60e0518452611d938383836139bf565b346103205760e051366003190112610320576040517f00000000000000000000000000000000000000000000000000000000000000006001600160a01b03168152602090f35b602080600319360112610320576004359060ff9060ff60685416611cae576129c1613f97565b8215612ec85760148311612e8b57605f54906129dd8483613bb9565b6000198101908111610f685760605410612e4f5760655480612d78575b506067548015159081612d56575b50612d44576066805490939060ff1615612cf157612a46857f0000000000000000000000000000000000000000000000000000000000000000613aef565b93843410612ba157612a588685613bb9565b605f553360e05152606e8352604060e05120612a75878254613bb9565b905560e0515b868110612c865750505060ff60665416600014612bb357612abc847f0000000000000000000000000000000000000000000000000000000000000000613aef565b60011c60e05160e05160e05160e051847f00000000000000000000000000000000000000000000000000000000000000005af1612af7613b89565b5015612ba15760e051908190819081907f00000000000000000000000000000000000000000000000000000000000000005af1612b32613b89565b5015612ba1575b823411612b80575b60405193845283015260408201527f26f4c0c9dd9536441681c861e4c72684bbec9e4e6d7e4492c2a90ff07cf35c6f60603392a2600160085560e05180f35b60e051808080612b90873461394e565b335af1612b9b613b89565b50612b41575b60405163cd1c886760e01b8152600490fd5b60e051808080612be3887f0000000000000000000000000000000000000000000000000000000000000000613aef565b7f00000000000000000000000000000000000000000000000000000000000000005af1612c0e613b89565b5015612ba15760e051808080612c44887f0000000000000000000000000000000000000000000000000000000000000000613aef565b7f00000000000000000000000000000000000000000000000000000000000000005af1612c6f613b89565b50612b395760405163cd1c886760e01b8152600490fd5b80612c9360019287613bb9565b612c9d813361416b565b8354851615612cca5760e051905b604051918252600080516020614980833981519152873393a301612a7b565b7f000000000000000000000000000000000000000000000000000000000000000090612cab565b612a4685612d3f7f00000000000000000000000000000000000000000000000000000000000000007f0000000000000000000000000000000000000000000000000000000000000000613bb9565b613aef565b6040516352f7657b60e01b8152600490fd5b90503360e05152606e8252612d7185604060e0512054613bb9565b1185612a08565b60e05190815b818110612da5575b505015612d9357846129fa565b604051630b094f2760e31b8152600490fd5b83612daf8261367f565b905460039190911b1c6001600160a01b031680612dd3575b50506001905b01612d7e565b6040516370a0823160e01b81523360048201529190829060249082905afa60e0519181612e20575b50612e095750600190612dcd565b612e14578388612dc7565b50505060018580612d86565b9091508581813d8311612e48575b612e3881836137b5565b8101031261032057519089612dfb565b503d612e2e565b6064906040519063d647364f60e01b825260048201526014602482015273457863656564732065646974696f6e2073697a6560601b6044820152fd5b6064906040519063d647364f60e01b82526004820152601560248201527445786365656473206d6178206d696e742073697a6560581b6044820152fd5b6064906040519063d647364f60e01b82526004820152600d60248201526c5a65726f207175616e7469747960981b6044820152fd5b60203660031901126103205760043560ff60685416611cae57612f1e613f97565b8060e051526069602052604060e0512090600160405192612f3e84613720565b80548452015460018060a01b039060ff6020850191838116835260a01c161580156040860152611c635783513410612ba157511691612f7e815183613b02565b825160fa81029080820460fa1490151715610f6857612710900490612fad82612fa883875161394e565b61394e565b60e051909390918291829182915af1612fc4613b89565b5015612ba15760e051908190819081907f00000000000000000000000000000000000000000000000000000000000000005af1612fff613b89565b5015612ba15760e05190819081908190875af161301a613b89565b5015612ba1578051803411613078575b5061303482613fba565b61303f823385614103565b51906040519182527f3d5eb834b5d6cadc063c171c3f25f60bca8ea892ba9db25342278927d0af955660203393a4600160085560e05180f35b60e0519081908190819061308c903461394e565b335af1613097613b89565b5015612ba1578361302a565b346103205760e0513660031901126103205760405163c45a015560e01b8152602081600481335afa9081156106f45760e05191613124575b506001600160a01b039081167f0000000000000000000000000000000000000000000000000000000000000000909116036106895761311b606354613b7a565b60635560e05180f35b61313d915060203d6020116106ed576106df81836137b5565b816130db565b346103205761315a6131543661364e565b90613b02565b9061049f60405192839283613664565b3461032057611d9961317b36613619565b916139bf565b34610320576020806003193601126103205761319b6135e8565b6065546131a781613971565b906131b560405192836137b5565b8082526131c181613971565b8285019390601f190136853760e0516001600160a01b03918216905b83811061322a57868587604051928392818401908285525180915260408401929160e0515b82811061321157505050500390f35b8351151585528695509381019392810192600101613202565b9081876024613239869561367f565b9190549160405196879384926370a0823160e01b845288600485015260031b1c165afa80156106f457889360e05191613288575b5090600191151561327e8289613988565b52019091506131dd565b8481939592503d83116132b3575b6132a081836137b5565b810103126103205751879290600161326d565b503d613296565b346103205760e05136600319011261032057605f546000198101908111610f6857602090604051908152f35b3461032057602036600319011261032057600435801515809103610320577f00000000000000000000000000000000000000000000000000000000000000006001600160a01b03163303611baa5760207f0e2fb031ee032dc02d8011dc50b816eb450cf856abd8261680dac74f72165bd29160ff196068541660ff821617606855604051908152a160e05180f35b346103205760403660031901126103205761338d6135e8565b60243561339981613ec5565b33151580613456575b80613425575b61340d5760e0516001600160a01b0393841693839285929116907f8c5be1e5ebec7d5bd14f71427d1e84f3dd0314c0f7b2291e5b200ac8c7c3b9259080a460e08051919091526004602052516040812080546001600160a01b03191690921790915580f35b60405163a9fbf51f60e01b8152336004820152602490fd5b5060018060a01b03811660e051526005602052604060e051203360e0515260205260ff604060e051205416156133a8565b506001600160a01b0381163314156133a2565b346103205760203660031901126103205760043561348681613ec5565b5060e051526004602052602060018060a01b03604060e051205416604051908152f35b346103205760e0513660031901126103205761049f610b5b6137d8565b346103205760e051366003190112610320576040517f00000000000000000000000000000000000000000000000000000000000000006001600160a01b03168152602090f35b34610320576020366003190112610320576004359063ffffffff60e01b8216809203610320576020916380ac58cd60e01b81148015613590575b8015613580575b8091811561355e575b505015158152f35b63152a902d60e11b1491508115613578575b508380613556565b905083613570565b506301ffc9a760e01b811461354d565b50635b5e139f60e01b8114613546565b60005b8381106135b35750506000910152565b81810151838201526020016135a3565b906020916135dc815180928185528580860191016135a0565b601f01601f1916010190565b600435906001600160a01b03821682036135fe57565b600080fd5b602435906001600160a01b03821682036135fe57565b60609060031901126135fe576001600160a01b039060043582811681036135fe579160243590811681036135fe579060443590565b60409060031901126135fe576004359060243590565b6001600160a01b039091168152602081019190915260400190565b60655481101561369a57606560005260206000200190600090565b634e487b7160e01b600052603260045260246000fd5b606d5481101561369a57606d60005260206000200190600090565b605c5481101561369a57605c60005260206000200190600090565b90600182811c92168015613716575b602083101461370057565b634e487b7160e01b600052602260045260246000fd5b91607f16916136f5565b606081019081106001600160401b0382111761373b57604052565b634e487b7160e01b600052604160045260246000fd5b608081019081106001600160401b0382111761373b57604052565b6001600160401b03811161373b57604052565b602081019081106001600160401b0382111761373b57604052565b604081019081106001600160401b0382111761373b57604052565b601f909101601f19168101906001600160401b0382119082101761373b57604052565b60405190600082600054916137ec836136e6565b8083526020936001908181169081156138565750600114613818575b5050613816925003836137b5565b565b600080805285812095935091905b81831061383e57505061381693508201013880613808565b85548884018501529485019487945091830191613826565b91505061381694925060ff191682840152151560051b8201013880613808565b9181601f840112156135fe578235916001600160401b0383116135fe576020808501948460051b0101116135fe57565b90815180825260208080930193019160005b8281106138c6575050505090565b8351855293810193928101926001016138b8565b346135fe5760003660031901126135fe57602060405160148152f35b6001600160401b03811161373b57601f01601f191660200190565b90815180825260208080930193019160005b828110613931575050505090565b83516001600160a01b031685529381019392810192600101613923565b9190820391821161395b57565b634e487b7160e01b600052601160045260246000fd5b6001600160401b03811161373b5760051b60200190565b805182101561369a5760209160051b010190565b6001600160a01b0391821681526020810192909252909116604082015260600190565b906001600160a01b039081168015613ad657600091848352600260205284604092828486205416809533613a80575b6000805160206149608339815191529082613a5f575b83815260036020908152878220805460010190558582526002905286812080546001600160a01b0319168517905580a483168203613a425750505050565b516364283d7b60e01b81529283926106c19291906004850161399c565b613a6885614737565b82815260036020528681208054600019019055613a04565b9192613a8e915033876142ea565b15613a9c57908487926139ee565b838786613ab9576024915190637e27328960e01b82526004820152fd5b905163177e802f60e01b81529081906106c1903360048401613664565b604051633250574960e11b815260006004820152602490fd5b8181029291811591840414171561395b57565b6000908152600760205260409020546001600160a01b0380821693929160a01c908415613b46575b5061271091613b42916001600160601b031690613aef565b0490565b600654908116945060a01c9050612710613b2a565b908160209103126135fe57516001600160a01b03811681036135fe5790565b600019811461395b5760010190565b3d15613bb4573d90613b9a826138f6565b91613ba860405193846137b5565b82523d6000602084013e565b606090565b9190820180921161395b57565b919081101561369a5760051b0190565b356001600160a01b03811681036135fe5790565b606554600160401b81101561373b57806001613c09920160655561367f565b60018060a09493941b038084549260031b9316831b921b1916179055565b60405190605c54808352826020916020820190605c6000526020600020936000905b828210613c5f57505050613816925003836137b5565b855484526001958601958895509381019390910190613c49565b81835290916001600160fb1b0383116135fe5760209260051b809284830137010190565b600160401b811161373b57605c549080605c55818110613cbb575050565b600090605c600052602060002092830192015b828110613cda57505050565b818155600101613cce565b90613cef82613971565b613cfc60405191826137b5565b8281528092613d0d601f1991613971565b0190602036910137565b9080158015613e7a575b613e6c57606c5480831015613e2d5780613d3b8385613bb9565b1191600092600014613e1c5750925b613d576117ad848661394e565b93613d656117ad858361394e565b93613d736117ad828461394e565b93815b838110613d835750505050565b80613d8f6001926136b0565b90549060031b1c808452602090606982526040908186209085835192613db484613720565b8054845201549260ff878060a01b0395840194868116865260a01c16151590830152613dea8d613de48a8861394e565b90613988565b5251613dff613df9888661394e565b8c613988565b525116613e15613e0f868461394e565b89613988565b5201613d76565b613e27915083613bb9565b92613d4a565b505050604051613e3c8161377f565b6000815260405191613e4d8361377f565b6000835260405191613e5e8361377f565b600083526000368137929190565b5050604051613e3c8161377f565b5060648111613d21565b6020613816919392936040519481613ea587935180928680870191016135a0565b8201613eb9825180938680850191016135a0565b010380855201836137b5565b6000818152600260205260409020546001600160a01b0316908115613ee8575090565b60249060405190637e27328960e01b82526004820152fd5b6000828152600260205260408120546001600160a01b03908116939284916000805160206149608339815191529183613f75575b169283613f5d575b84815260026020526040812080546001600160a01b0319168517905580a490565b83815260036020526040812060018154019055613f3c565b613f7e86614737565b8385526003602052604085208054600019019055613f34565b600260085414613fa8576002600855565b604051633ee5aeb560e01b8152600490fd5b60008181526020606a81526040908183205493606c5494600019958681019081116140ef57613fe8906136b0565b90549060031b1c908286526069845260018587200160ff60a01b198154169055606c548781019081116140db5781036140b1575b5050606d54801561409d578501614032816136b0565b8782549160031b1b19169055606d558352606a81528282812055606c54848101908111614089578352606b90528120819055606c54908115614075575001606c55565b634e487b7160e01b81526011600452602490fd5b634e487b7160e01b84526011600452602484fd5b634e487b7160e01b85526031600452602485fd5b6140be82611818836136b0565b818652606a845280858720558552606b835283852055388061401c565b634e487b7160e01b87526011600452602487fd5b634e487b7160e01b86526011600452602486fd5b906001600160a01b039081811615613ad6578361411f91613f00565b90808216908161414257604051637e27328960e01b815260048101869052602490fd5b83160361414e57505050565b6106c1906040519384936364283d7b60e01b85526004850161399c565b60409182516141798161377f565b60008082526001600160a01b03848116949192919085156142d25761419e8583613f00565b166142ba573b6141b0575b5050505050565b60206141ed91869795965180938192630a85bd0160e11b9788845233600485015287602485015260448401526080606484015260848301906135c3565b038185895af19082908261426a575b50506142355750505061420d613b89565b805192908361422e578151633250574960e11b815260048101849052602490fd5b8390602001fd5b9193916001600160e01b0319160361425357505038808080806141a9565b602492505190633250574960e11b82526004820152fd5b909192506020813d6020116142b2575b81614287602093836137b5565b810103126142ae5751906001600160e01b0319821682036142ab57509038806141fc565b80fd5b5080fd5b3d915061427a565b85516339e3563760e11b815260048101849052602490fd5b8651633250574960e11b815260048101859052602490fd5b6001600160a01b039182168015159392909184614309575b5050505090565b8192939450169282841493841561434b575b50831561432f575b50505038808080614302565b9091925060005260046020526040600020541614388080614323565b909350600052600560205260406000208260005260205260ff60406000205416923861431b565b9293823b614381575050505050565b6143c59060018060a01b038094169560405194859481630a85bd0160e11b9889885216600487015216602485015260448401526080606484015260848301906135c3565b03906020816000938185885af190829082614445575b505061441357826143ea613b89565b805191908261440c57604051633250574960e11b815260048101839052602490fd5b9050602001fd5b6001600160e01b0319160361442d575038808080806141a9565b60249060405190633250574960e11b82526004820152fd5b909192506020813d602011614486575b81614462602093836137b5565b810103126142ae5751906001600160e01b0319821682036142ab57509038806143db565b3d9150614455565b614570916144b26144a96144a360609461459b565b9261459b565b94610dbc613c27565b604051948592683c7265637420783d2760b81b60208501526144de8151809260206029880191016135a0565b8301642720793d2760d81b6029820152614502825180936020602e850191016135a0565b017f272077696474683d27382e3327206865696768743d27382e33272066696c6c3d602e820152602760f81b604e820152614547825180936020604f850191016135a0565b0170139039ba3937b5b29e93b737b73293979f60791b604f8201520360408101845201826137b5565b90565b9061457d826138f6565b61458a60405191826137b5565b8281528092613d0d601f19916138f6565b6000908072184f03e93ff9f4daa797ed6e38ed64bf6a1f0160401b808210156146ca575b506904ee2d6d415b85acef8160201b808310156146bb575b50662386f26fc10000808310156146ac575b506305f5e1008083101561469d575b506127108083101561468e575b50606482101561467e575b600a80921015614674575b60019081602161462d60018701614573565b95860101905b61463e575050505090565b600019019083906f181899199a1a9b1b9c1cb0b131b232b360811b8282061a83530491821561466f57919082614633565b614302565b916001019161461b565b9190606460029104910191614610565b60049193920491019138614605565b600891939204910191386145f8565b601091939204910191386145e9565b602091939204910191386145d7565b6040935081049150386145bf565b604051906146e582613720565b604082527f6768696a6b6c6d6e6f707172737475767778797a303132333435363738392b2f6040837f4142434445464748494a4b4c4d4e4f505152535455565758595a61626364656660208201520152565b600090815260046020526040902080546001600160a01b0319169055565b600019810190811161395b5760038102908082046003149015171561395b576147876147818284613988565b5161459b565b916001820180831161395b576147816147a09183613988565b926002830180931161395b576147be61478161457094602794613988565b604051948592630e4cec4560e31b60208501526147e58151809260206024880191016135a0565b830190600b60fa1b918260248201526148088251809360206025850191016135a0565b019060258201526148238251809360206026850191016135a0565b01602960f81b60268201520360078101845201826137b5565b919091805115614929578051926002916002850180951161395b576003948590046001600160fe1b038116810361395b5761487c9060029694961b614573565b926020840192829183518401976020890192835194600085525b8a81106148dc575050505060039394959650525106806001146148c9576002146148be575090565b603d90600019015390565b50603d9081600019820153600119015390565b836004919b989b019a8b51600190603f9082828260121c16870101518453828282600c1c16870101518385015382828260061c168701015187850153168401015185820153019699614896565b5090506040516149388161377f565b600081529056fe86eba8651458cc924e4911e8a0a31258558de0474fdc43da05cea932cf130aadddf252ad1be2c89b69c2b068fc378daa952ba7f163c4a11628f55a4df523b3ef2d03118aa776f7008445f6ca8490a6782ede2db364d741513555ba656ab1879fa26469706673582212206547663db97fc740ca51ffe060cc4f158c58ca5c640dd6e17d277090d58b952264736f6c63430008170033290decd9548b62a8d60345a988386fc84ba6bc95484008f6362f93160ef3e563b10e2d527612073b26eecdfd717e6a320cf44b4afac2b0732d9fcbe2b7fa0cf6f0ecb75dd1820844c57b6762233d4e26853b3a7b8157bbd9f41f280a0f1cee9b8be0079c531659141344cd1fd0a4f28419497f9722a3daafe3b4186f6b6457e0a26469706673582212202cb9517dc6dc83127b2d48cd7725fd8f8c2c628e89faa9f2771d290ac388878364736f6c63430008170033",
  "linkReferences": {},
  "deployedLinkReferences": {}
}